:020000040800F2
:10000000200A002045010008C11D00085514000801
:10001000A11C0008A50C0008BD2B00080000000072
:10002000000000000000000000000000C9210008DE
:10003000AB0E000800000000491E0008152700084C
:100040005F0100085F0100085F010008D12000087F
:100050005F0100085F010008D10F00085F01000880
:100060005F0100085F0100085F0100085F010008F0
:100070005F0100085F0100085F0100085F010008E0
:100080005F0100085F0100085F0100085F010008D0
:100090005F0100085F0100085F0100085F010008C0
:1000A0005F0100085F0100085F0100085F010008B0
:1000B0005F0100085F0100085F0100085F010008A0
:1000C0005F0100085F0100085F0100085F01000890
:1000D0005F0100085F010008792700085F01000840
:1000E000151000085F0100085F0100085F010008AB
:1000F0005F0100085F0100085F0100085F01000860
:100100005F0100085F0100085F0100085F0100084F
:100110005F0100085F0100085F0100085F0100083F
:100120005F0100085F0100085F0100085F0100082F
:10013000DFF80CD000F010FC00480047C53600087E
:10014000200A00200648804706480047FEE7FEE7F1
:10015000FEE7FEE7FEE7FEE7FEE7FEE7FEE7FEE777
:100160001927000831010008D2B201E000F8012B84
:10017000491EFBD270470022F6E710B513460A4627
:1001800004461946FFF7F0FF204610BD30B505467E
:100190002A460B4612F8010B13F8014B08B1A04296
:1001A000F8D01CB1002802D06D1CF1E7284630BD04
:1001B000421C10F8011B0029FBD1801A704730B592
:1001C00004460020034600E05B1C934203D2E05C3F
:1001D000CD5C401BF8D030BD034611F8012B00F870
:1001E000012B002AF9D118467047F0B480EA0102C9
:1001F000D40F4200B2EB410F02D20246084611462C
:100200004A0042D0C30DDDB2C1F3C752AD1A202D52
:1002100035DAC1F3160141F4000204B15242C5F1CE
:10022000200602FA06F12A411044B3EBD05F23D036
:10023000C4B1012DA0EBC35009DCF0BC4FF000426B
:1002400002EAC352DBB200F5000000F0FBB9400047
:1002500000F1807000EBC350A0F1807040EAD170D3
:10026000490009E0490841EAC071A0EBC35000F51C
:100270000000400800EBC350F0BC00F0DAB9614266
:10028000012202EB4101001BF6E7F0BC704781F050
:100290000041AAE780F00040A7E780EA010210B51C
:1002A00002F00043400022D04A001FD0010E01EBB3
:1002B0001261C0F35600C2F3560240F4000042F44B
:1002C0000002A0FB022000047F39140400D0401C6F
:1002D00050EA124001D44000491EC2B20C0604EBA1
:1002E000D010401C4008802A02D003E0002010BD3E
:1002F00020F00100002900DA0020184310BD30B4BE
:1003000080EA010202F0004530F0004221F0004096
:1003100013D090B1C30DD40DC2F31601C0F3160073
:10032000E41A41F4000140F400027D34914201D30B
:10033000641C00E04900002C02DA30BC0020704749
:100340004FF400000023914201D3891A034340086F
:100350004FEA4101F7D151B1914202D14FF0004132
:1003600005E002D24FF0010101E06FF0010103EB63
:10037000C450284430BC00F05CB92DE9FE4F81EA3E
:10038000030404F0004421F0004100944FF0000BFE
:1003900023F0004350EA01045ED052EA03045BD02C
:1003A000C3F30A54C1F30A552C44A4F2F334019464
:1003B000A0FB0254C1F3130141F48011C3F31303F2
:1003C00043F4801301FB024400FB034E840A970AA6
:1003D00044EA815447EA8357A4FB076802958D0AD3
:1003E00005FB07854FEA932C04FB0C542705029D5F
:1003F0004FEA065847EA1637B5EB08056EEB070CCF
:10040000870E920E47EA811742EA8312A7FB020188
:10041000B6EB0B0164EB00042B0D43EA0C335E18C2
:1004200044EB1C50DA465146E7FB0201C5F31304C6
:100430004FEA0B3343EA14534FEA0432019C43EA78
:100440000603A4F10C040294009CCDE900B400F072
:1004500036F903B0BDE8F08F00200146F9E72DE939
:10046000F04D81EA030404F0004B21F000451446EE
:100470004FF0000A23F0004150EA050220D054EA70
:1004800001021DD0C5F30A570246C5F31303C1F399
:100490001300C1F30A5640F4801543F48013A7EB10
:1004A0000608101BD64608F2FD3873EB050002D390
:1004B00008F1010801E092185B41B8F1000F03DA7E
:1004C00000200146BDE8F08D00204FF48011064663
:1004D00084460EE0171B73EB050705D3121B63EB75
:1004E000050306434CEA010C49084FEA3000921814
:1004F0005B4150EA0107EDD152EA030012D082EAD3
:10050000040083EA0501084305D0101BAB4106D265
:100510000122002306E000224FF0004302E06FF0CA
:10052000010253101AEB06004CEB085110EB0A00C5
:1005300041EB0B01BDE8F04D00F0B2B8962300226C
:10054000114600F07FB800F0004230F000400AD0C1
:10055000C10D01F56071C0F3160042EA0151C208F5
:1005600040071143704700200146704701F00043E7
:1005700030B421F0004150EA010206D00A0DA2F584
:100580006072C1F31301002A02DC30BC0020704706
:10059000440F44EAC104C100E01830BC00EBC25073
:1005A00000F047B830B50B46014600202022012458
:1005B00009E021FA02F59D4205D303FA02F5491B31
:1005C00004FA02F52844151EA2F10102F1DC30BD47
:1005D0002DE9F05F0546002092469B468846064678
:1005E000814640241BE0284641464746224600F00B
:1005F000D4F953465A46C01A914110D311461846B1
:10060000224600F0BBF92D1A67EB01084F4622463F
:100610000120002100F0B2F917EB00094E41201E25
:10062000A4F10104DFDC484631462A464346BDE8D2
:10063000F09F0029A8BF7047401C490008BF20F068
:100640000100704710B4B0FA80FC00FA0CF050EAD8
:10065000010404BF10BC704749B1CCF1200421FA59
:1006600004F411FA0CF118BF012121430843A3EB54
:100670000C01CB1D4FEA00614FEA102042BF002061
:1006800010BC704700EBC35010440029A4BF10BC3D
:100690007047401C490008BF20F0010010BC7047A3
:1006A00010B5141E73F1000408DA401C41F100017A
:1006B00092185B411A4301D120F0010010BD2DE9D1
:1006C000F04D92469B4611B1B1FA81F202E0B0FAC8
:1006D00080F22032904600F051F904460F4640EA7D
:1006E0000A0041EA0B0153465A46084313D011460B
:1006F00053EA010019D0C8F14002504600F04DF90C
:1007000005460E4650465946424600F037F9084322
:1007100005D0012004E020463946BDE8F08D0020D8
:10072000054346EAE0762C4337430A986305E40A1A
:10073000A0EB08000022FD0A44EA47540A3002D523
:1007400000200146E9E7010510196941DDE9084586
:1007500000196941BDE8F04DA2E72DE9FE4F804642
:1007600081EA0300C00F0C46009021F0004123F005
:100770000045B8EB0200A94105D24046214690460B
:100780001C460B46024623F00040104347D0270D7D
:10079000C7F30A00C3F30A510290401A019040289F
:1007A0006BDAC3F3130040F4801B0098924620B12B
:1007B0000023D2EB030A63EB0B0B01985946C0F1FF
:1007C0004002504600F0DAF806460D4650465946BB
:1007D000019A00F0F2F810EB08006141002487EA6A
:1007E000115284EAE7731A4340D0009A62B3019A27
:1007F000012A4FEA075215DC001B61EB02014FF0A2
:10080000004202EA0752CDE90042001C41F5801186
:1008100032462B46FFF753FF03B0BDE8F08F40464A
:100820002146F9E7001B61EB0201001C41F5801332
:1008300000185B412018A2F5001747EB030140EABE
:10084000D570B6196D4111E06D084FEA360645EADC
:10085000C0754FEA0752001B61EB0201001C41F515
:10086000801149084FEA30000019514132462B46A9
:1008700003B0BDE8F04FFFF713BF0098012240001E
:100880000023D0EB020263EBE073009821464FEAAD
:10089000E074B8EB000061EB0401E9E783F000438A
:1008A0005BE781F0004158E770B521F00043034356
:1008B0000CD0C1F30A550024D5EB040564EB040306
:1008C000D617AD1AB34102DB0020014670BD2018D7
:1008D00041EB025170BD0EB5C10F80EAE0700844D3
:1008E000CA07002140F233438DE80E000A460B464A
:1008F000FFF7E5FE03B000BDC1F30A52C1F31301D7
:1009000040F2FF3341F480119A4202DA002001469E
:10091000704740F233439A42A2F2334202DC524221
:1009200000F03BB800F02AB830B5041E71F10004A5
:1009300004DB4FF00044404264EB0101141E73F1EC
:10094000000405DB1C464FF00043524263EB0403F6
:10095000994208BF904230BD064C074D06E0E06862
:1009600040F0010394E8070098471034AC42F6D3F6
:10097000FFF7E2FB6C8100088C810008202A04DB71
:10098000203A00FA02F1002070479140C2F12003A2
:1009900020FA03F3194390407047202A04DB203AE1
:1009A00021FA02F00021704721FA02F3D040C2F18F
:1009B00020029140084319467047202A06DBCB17D6
:1009C000203A41FA02F043EAE07306E041FA02F30A
:1009D000D040C2F1200291400843194670472DE9EA
:1009E000F04D00231A461B1A8A4103DB0020014602
:1009F000BDE8F08DC1F30A52C1F3130141F4801533
:100A00004FF0000BD10702D100186D41521E002794
:100A1000044640F2FF11384601EB620A3E4680462A
:100A2000024600204FF48011FFF7B7FFC219714151
:100A3000BB1846EB0100B4EB030C75EB000C04D3C0
:100A4000E41A65EB000517460E46241908F101006B
:100A50006D4180463428E3DDF91946EB0600091B99
:100A6000A84103D24FF0FF32134601E000221346A3
:100A70001BEB070046EB0A51BDE8F04DFFF710BE37
:100A800070B58C1810F8015B15F0070301D110F850
:100A9000013B2A1106D110F8012B03E010F8016B7D
:100AA00001F8016B5B1EF9D12B0705D40023521E00
:100AB0000DD401F8013BFAE710F8013BCB1A921C68
:100AC00003E013F8015B01F8015B521EF9D5A14266
:100AD000D8D3002070BD21B1826842F0010282604B
:100AE00003E0826822F001028260704721B18268CF
:100AF00042F48072826003E0826822F48072826035
:100B00007047014600208A6802F004020AB1012001
:100B100000E000207047014600208A6802F00802C9
:100B20000AB1012000E000207047000030B5024605
:100B30000020002350680F4C20400D790C6844EAD7
:100B400005242043506090680B4C2040D1E90254AA
:100B50002C434D7944EA450420439060D06A20F448
:100B600070000C7C641EE4B2234340EA0350D06260
:100B700030BD0000FFFEF0FFFDF7F1FFF0B50446C9
:100B80000D4600200021092D11DDE068A5F10A06BF
:100B900006EB4607072606FA07F18843A5F10A0681
:100BA00006EB460603FA06F10843E0600CE0206914
:100BB00005EB4507072606FA07F1884305EB4506CE
:100BC00003FA06F108432061072A0FDA606B561E0C
:100BD00006EB86071F2606FA07F18843561E06EB2A
:100BE000860605FA06F10843606322E00D2A0FDA53
:100BF000206BD61F06EB86071F2606FA07F18843EF
:100C0000D61F06EB860605FA06F10843206310E0BE
:100C1000E06AA2F10D0606EB86071F2606FA07F129
:100C20008843A2F10D0606EB860605FA06F1084395
:100C3000E062F0BD816841F008018160704721B138
:100C4000826842F4A002826003E0826822F4A0027B
:100C500082607047816841F0040181607047002123
:100C60000160017141718160C160012101747047AF
:100C700070B506460C46002500BF0AE0042207A115
:100C80003046FFF79CFA08B9002070BD761C681C3E
:100C9000C5B2A542F2DB4FF0FF30F6E77375636330
:100CA0000000000000BFFEE710B50FA11148FFF7DC
:100CB0006DFA08B1022010BD0FA10E48FFF766FAC9
:100CC00008B10320F7E70FA10A48FFF75FFA08B160
:100CD0000420F0E70EA10748FFF758FA08B10520F5
:100CE000E9E70020E7E700005354415455533A32F6
:100CF000000000003C0100205354415455533A3346
:100D0000000000005354415455533A340000000091
:100D10005354415455533A350000000008B50121A1
:100D2000102001F0BFF810208DF803000120ADF86D
:100D3000000003208DF802006946064800F02CFAF6
:100D40000121044800F007FB01F03EFC01F00AFA23
:100D500008BD00000010014070B5002500240026E9
:100D600000BF08E000F03AF8064606FA04F028430F
:100D7000C5B2601CC4B2082CF4DB284670BD7CB53B
:100D800005460E46002000900190002401F01CFC56
:100D900001F0E8F900BF05E0FFF7DEFF0DF8040001
:100DA000601CC4B2052CF7DB9DF800009DF8011013
:100DB00008449DF8021008449DF8031008449DF86B
:100DC0000410884201D001207CBD9DF802002870EB
:100DD0009DF8000030700020F6E7000010B50024F8
:100DE00003E0641C012000F0A9F80121124800F082
:100DF000A7FA08B1642CF4DB002403E0641C012092
:100E000000F09CF801210C4800F09AFA08B9642C13
:100E1000F4DB002403E0641C012000F08FF80121C2
:100E2000054800F08DFA0028F5D1282C01DD0120BD
:100E300010BD0020FCE700000010014021B1026855
:100E400042F00102026004E002684FF6FE731A40AD
:100E50000260704710B50022026847F6F0739A43AB
:100E60000C6A8B6823430C6923434C6923438C69C8
:100E70002343CC6923434C6A23438C6A23431A439C
:100E80000260CB6843600B6883604B68C36010BD31
:100E90000021016041608160C16001614161816147
:100EA000C1610162416281627047704710B56FF0A5
:100EB000040001F01BFC0A4800680A49B0FBF1F08D
:100EC000094908700846007800EB4001C1EBC010EA
:100ED0004FF6FF7101EAC0000449088010BD000010
:100EE0000000002000127A003000002032000020B4
:100EF0000146114A12884A434FF0E0235A6100220A
:100F00009A611A46126942F001021A6100BF4FF05D
:100F1000E022106900F001021AB100F48032002AC8
:100F2000F5D04FF0E022126922F001024FF0E023E9
:100F30001A6100229A617047320000200146114A6E
:100F400012784A434FF0E0235A6100229A611A4610
:100F5000126942F001021A6100BF4FF0E0221069ED
:100F600000F001021AB100F48032002AF5D04FF0EF
:100F7000E022126922F001024FF0E0231A61002200
:100F80009A6170473000002010B501F0CDFA01F0F1
:100F9000EDF90E4890F83400022806D0032807D057
:100FA000042806D005280AD106E001F0ABF906E0D6
:100FB00005E001F0A7F902E001F026FE00BF00BF46
:100FC00001F004F901F06AF910BD00003C050020B1
:100FD00010B5012000F048F8B0B10C48007808B90D
:100FE000012000E00020094908700846007820B977
:100FF0000421074800F0AFF903E00421044800F0A1
:10100000A8F9012000F02AF810BD00002E010020F0
:101010000010014010B54FF4005000F025F8B8B1B1
:101020000C48007808B9012000E000200949087048
:101030000846007820B90821074800F08CF903E041
:101040000821054800F085F94FF4005000F006F83B
:1010500010BD00002F010020001001400149086070
:101060007047000014040140014600200022074B95
:101070001B6803EA0102054B14331B680B4013B1D4
:101080000AB1012000E00020704700000004014088
:10109000002123498279002A3AD00A46126803685F
:1010A0009A430B461A600A1D126803689A430B1D87
:1010B0001A60027911440A6803681A430A60184AE0
:1010C0000832126803689A43154B08331A601A1DD8
:1010D000126803689A43124B0C331A604279102A43
:1010E0000ED11A1F126803681A430D4B08331A6099
:1010F0001A1D126803681A43094B0C331A600DE07D
:101100000749427911440A6803681A430A6005E0F6
:10111000027911440A6803689A430A607047000024
:101120000004014010B501F079FC06A001F0A6FD15
:1011300001F06AFD401C10B94FF0FF3010BD0020D7
:10114000FCE70000737461727420636F6E666967F8
:1011500020776966690A000030B500228B071C0FF2
:101160000F2303FA04F20B4B8C1053F824309343F3
:10117000084C8D1044F8253023468C1053F8243049
:101180008C07240F00FA04F42343024C8D1044F81A
:10119000253030BD080001402DE9F0410246002510
:1011A0000026002000230024002791F803C00CF043
:1011B0000F0591F803C00CF0100CBCF1000F03D028
:1011C00091F802C04CEA050591F800C0BCF1000F8F
:1011D00031D0146800202BE04FF0010C0CFA00F322
:1011E000B1F800C00CEA03069E4220D183004FF004
:1011F0000F0C0CFA03F7BC4305FA03FC4CEA040499
:1012000091F803C0BCF1280F06D14FF0010C0CFA85
:1012100000FCC2F814C00AE091F803C0BCF1480F0A
:1012200005D14FF0010C0CFA00FCC2F810C0401CB4
:101230000828D1D31460B1F800C0BCF1FF0F34DD31
:10124000546800202EE000F1080C4FF0010808FA65
:101250000CF3B1F800C00CEA03069E4221D18300D2
:101260004FF00F0C0CFA03F7BC4305FA03FC4CEAF1
:10127000040491F803C0BCF1280F05D100F1080C5B
:1012800008FA0CF8C2F8148091F803C0BCF1480FBA
:1012900007D100F1080C4FF0010808FA0CF8C2F869
:1012A0001080401C0828CED35460BDE8F0810000B7
:1012B000F0B50A46002300240021002500F0004676
:1012C000B6F1004F02D11D4EF16901E01B4E71686D
:1012D000C0F3034583B200F44016B6F5401F08D1B1
:1012E00021F07061154E766826F07066134F7E60AF
:1012F00012E000F48016B6F5801F06D1032606FA28
:1013000005F4A14341F0706106E0460D360103FA91
:1013100006F6B14341F0706122B1460D360103FA81
:1013200006F6314300F00046B6F1004F02D1034EFD
:10133000F16101E0014E7160F0BD0000000001406C
:101340000246002093680B400BB1012000E0002012
:10135000704741617047016170474FF6FF7101802E
:10136000022181700421C17070470000014800888B
:10137000704700002C01002000B5002205E0FFF7B7
:10138000F5FF084481B2501CC2B20A2AF7DB0A20DA
:1013900091FBF0F080B200BD2DE9FE4FFFF7ECFFAE
:1013A00002900298FFF7CAF805462349FEF775FF39
:1013B00004462249FEF7A3FF824651461E48FEF727
:1013C00066FF05465146FEF79AFF04461A49FEF7A6
:1013D00064FF834600221A4B4FF08040194902F007
:1013E00081FB06460F465846FFF7ADF88046324669
:1013F0003B46FFF734F80446FFF7B8F81249086097
:10140000084601685846FEF77AFF0090FFF79BF800
:1014100006464FF080420D4B02F064FB80464FF0D1
:1014200080420B4BFEF7A9FF0446FFF79FF801909F
:101430000198BDE8FE8F00000000A04000007F433F
:10144000B6DBDEBF24AEA03F280100208D9700C090
:10145000332F834000BFFEE710B5044624B10421BA
:101460000448FFF776FF03E004210248FFF773FF0B
:1014700010BD0000001401402DE9F04106460F4662
:1014800014461D462B4622463946304600F058F990
:1014900004FB05F00249098800F08EF8BDE8F081F0
:1014A0004200002001B502E00098401E0090009824
:1014B0000028F9D108BD00002DE9F05F804689467B
:1014C0001646A6F120001FFA80FA1E49096889888D
:1014D0001C4A1268D28801FB02F0C11700EB51715F
:1014E000C1F3C7071748006800680AFB070B1548D7
:1014F0000068C3881348006882884946404600F067
:101500001FF92C2000F0A4FA002416E0002510E0BA
:101510001BF8040080212941084020B10A480088B6
:1015200000F0AAFA03E00948008800F0A5FA681C58
:10153000C5B2082DECDB601CC4B2BC42E6DBBDE8E2
:10154000F09F00003C0000204000002042000020EE
:1015500070B504460D46002624E03046134909685C
:101560008988084412490988884205DD00260F4809
:101570000068C088204484B220460C490968C988A4
:1015800008440C490988884201DD002600242A7895
:1015900021463046FFF790FF6D1C044800688088A4
:1015A000304486B228780028D7D170BD3C00002096
:1015B000340000203600002070B504460D46002699
:1015C0002C2000F045FA00BF03E0284600F054FA52
:1015D000761CA642F9D370BD08B50121084600F07B
:1015E00061FC0121382000F05DFC01211A48FFF761
:1015F0005FFE03208DF8020010208DF803004FF6E7
:10160000FF70ADF8000069461448FFF7C5FD2020C3
:10161000ADF8000069461248FFF7BEFD4020ADF866
:10162000000069460E48FFF7B7FD1020ADF8000036
:1016300069460B48FFF7B0FD8020ADF80000694611
:101640000748FFF7A9FD0420ADF8000069460548EA
:10165000FFF7A2FD08BD000000023000000C0140B1
:10166000001001400014014010B50446072C00DDB5
:1016700010BD28480470204604EBD0714910A4EB3B
:10168000410139B9F020244908804FF4A070234962
:10169000088006E04FF4A0701F490880F0201F4921
:1016A0000880362000F0D4F9082141EA441000F007
:1016B000E3F92A2000F0CCF9002000F0DDF9002049
:1016C00000F0DAF914490988491EC1F3072000F037
:1016D000D3F911490978491EC8B200F0CDF92B2081
:1016E00000F0B6F9002000F0C7F9002000F0C4F9BE
:1016F0000A490988491EC1F3072000F0BDF90749CE
:101700000978491EC8B200F0B7F92C2000F0A0F902
:1017100000BFADE738000020340000203600002074
:1017200010B5FFF759FF0120FFF796FE00F038F8DB
:1017300002480078FFF798FF10BD00003800002035
:101740002DE9F04104460D4616461F462A2000F0BA
:101750007FF9201200F090F9E0B200F08DF9A119A4
:10176000491EC1F30F2000F087F9A119491EC8B224
:1017700000F082F92B2000F06BF9281200F07CF9C0
:10178000E8B200F079F9E919491EC1F30F2000F021
:1017900073F9E919491EC8B200F06EF9BDE8F0818D
:1017A00010B54FF6FF70FFF77DFECF2000F050F927
:1017B000002000F061F9812000F05EF9302000F097
:1017C0005BF94FF6FF70FFF76DFEED2000F040F97A
:1017D000642000F051F9032000F04EF9122000F0CF
:1017E0004BF9812000F048F94FF6FF70FFF75AFEE1
:1017F000E82000F02DF9852000F03EF9102000F0DF
:101800003BF9782000F038F94FF6FF70FFF74AFEF9
:10181000CB2000F01DF9392000F02EF92C2000F02B
:101820002BF9002000F028F9342000F025F90220DF
:1018300000F022F94FF6FF70FFF734FEF72000F0BA
:1018400007F9202000F018F94FF6FF70FFF72AFE85
:10185000EA2000F0FDF8002000F00EF9002000F072
:101860000BF94FF6FF70FFF71DFEB12000F0F0F806
:10187000002000F001F91B2000F0FEF84FF6FF7089
:10188000FFF710FEB62000F0E3F80A2000F0F4F8AD
:10189000A22000F0F1F84FF6FF70FFF703FEC02022
:1018A00000F0D6F8352000F0E7F84FF6FF70FFF7AC
:1018B000F9FDC12000F0CCF8112000F0DDF8C520C2
:1018C00000F0C6F8452000F0D7F8452000F0D4F825
:1018D000C72000F0BDF8A22000F0CEF8F22000F002
:1018E000B7F8002000F0C8F8262000F0B1F8012079
:1018F00000F0C2F84FF6FF70FFF7D4FDE02000F0D3
:10190000A7F80F2000F0B8F8262000F0B5F8242042
:1019100000F0B2F80B2000F0AFF80E2000F0ACF8A9
:10192000092000F0A9F8542000F0A6F8A82000F043
:10193000A3F8462000F0A0F80C2000F09DF8172036
:1019400000F09AF8092000F097F80F2000F094F8C2
:10195000072000F091F8002000F08EF8E12000F060
:1019600077F8002000F088F8192000F085F81B2097
:1019700000F082F8042000F07FF8102000F07CF8DE
:10198000072000F079F82A2000F076F8472000F0D0
:1019900073F8392000F070F8032000F06DF806208D
:1019A00000F06AF8062000F067F8302000F064F8D4
:1019B000382000F061F80F2000F05EF84FF6FF705D
:1019C000FFF770FD362000F043F8C82000F054F80F
:1019D0004FF6FF70FFF766FD2A2000F039F800206F
:1019E00000F04AF8002000F047F8002000F044F82A
:1019F000EF2000F041F84FF6FF70FFF753FD2B206A
:101A000000F026F8002000F037F8002000F034F84D
:101A1000012000F031F83F2000F02EF84FF6FF7063
:101A2000FFF740FD3A2000F013F8552000F024F8AD
:101A3000112000F00DF80548FFF734FD4FF6FF7058
:101A4000FFF730FD292000F003F810BDFCBF0200B5
:101A50001021074A516180215161202111610549FE
:101A6000086040215161116110211161704700002F
:101A7000001001400C0C01401021074A51618021E7
:101A800011612021116105490860402151611161F6
:101A90001021116170470000001001400C0C014042
:101AA0000146CA1701EB92729210A1EB820292B921
:101AB000642091FBF0F200FB121050B94FF4C87093
:101AC00091FBF0F200FB121008B9012070470020D2
:101AD000FCE70120FAE70020F8E7000070B50024D9
:101AE0000D4D00BF12E002220CA12846FEF767FB55
:101AF00008B9022070BD022209A12846FEF75FFB4B
:101B000008B90120F6E76D1C601CC4B205480088C6
:101B10008442E8DB0020EDE73C0100204E6F00002E
:101B20004F4B00005C0000201FB50121152000F084
:101B3000B9F903A8FFF711FC04208DF80F0001206C
:101B4000ADF80C008DF80E0003A92948FFF724FB1F
:101B500000210846FFF700FB06208DF80800012051
:101B60008DF80B0002208DF8090001208DF80A0085
:101B700002A800F027F9012000908DF8060000204F
:101B80008DF804000C208DF805006846FFF780FAF8
:101B900004208DF80F00C002ADF80C0001208DF874
:101BA0000E0003A91248FFF7F7FA0D210220FFF7F4
:101BB000D3FA28208DF8080001208DF80B000220B0
:101BC0008DF809008DF80A0002A800F0FBF84FF428
:101BD0000050009001208DF8060000208DF80400D0
:101BE0000C208DF805006846FFF752FA1FBD000073
:101BF0000008014070B5044600F00CF8C5882B467B
:101C00000348028821460020FFF736FC70BD000023
:101C10003400002001480068704700003C000020AC
:101C2000024A1080024A11807047000040000020E4
:101C30004200002001490860704700003C0000207D
:101C400001490880704700004000002008B50121CC
:101C5000102000F027F910208DF803000420ADF8C3
:101C6000000003208DF8020069460C48FFF794FA43
:101C700010208DF803000820ADF8000003208DF837
:101C8000020069460548FFF787FA04210348FFF779
:101C900062FB08210148FFF75EFB08BD0010014010
:101CA00000BFFEE700B591B010A8FFF756FB0BA8E8
:101CB000FEF7D5FF6846FFF7EBF801214FF40170FE
:101CC00000F0F0F80121084600F0CCF84FF4404055
:101CD00000F0BCF800208DF843000220ADF8400071
:101CE00003208DF8420010A93148FFF755FA002073
:101CF000029030480090304801900220039000206C
:101D00000A904FF4806007908010069000200590A4
:101D10000490202008900002099069462748FFF7A8
:101D200099F801212548FFF789F800200B90012040
:101D30008DF83100C0020E904FF460200D9001200C
:101D40008DF83C0000208DF830000BA919484C3864
:101D5000FEF7ECFE052301220B2116484C38FEF756
:101D60000DFF012113484C38FEF7C0FE0121114838
:101D70004C38FEF7B0FE0F484C38FEF75BFF00BF53
:101D80000C484C38FEF7C7FE0028F9D109484C38FA
:101D9000FEF760FF00BF07484C38FEF7B2FE002890
:101DA000F9D1012103484C38FEF749FF11B000BDBD
:101DB000001001404C2401402C010020080002408A
:101DC0007047000070B5002100230F22C47804B3CF
:101DD000154C246804F4E064C4F5E064210AC1F100
:101DE0000403CA40447804FA03F184781440214380
:101DF00009010E4C0678A155047804F01F05012452
:101E0000AC4005786D11AD0005F1E025C5F8004145
:101E100009E0047804F01F050124AC40044D067865
:101E2000761145F8264070BD0CED00E000E400E0BE
:101E300080E100E002490143024A1160704700005E
:101E40000000FA050CED00E070470000014600209C
:101E5000034A506820F44040084350607047000037
:101E60000010024029B1064A52690243044B5A61EC
:101E700004E0034A52698243014B5A6170470000F3
:101E80000010024029B1064AD2690243044BDA61CC
:101E900004E0034AD2698243014BDA6170470000D3
:101EA0000010024029B1064A92690243044B9A612C
:101EB00004E0034A92698243014B9A617047000033
:101EC0000010024030B500210022002400232D4DD7
:101ED0006D6805F00C0121B1042905D0082923D132
:101EE00005E0294D056022E0274D05601FE0254DE6
:101EF0006D6805F47012234D6D6805F48034022579
:101F000005EB92421CB9214D554305600BE01D4D78
:101F10006D6805F400351DB11C4D5543056002E0A8
:101F2000194D5543056002E0174D056000BF00BF25
:101F3000144D6D6805F0F0010909154D6B5C0568DD
:101F4000DD4045600F4D6D6805F4E061090A104DF4
:101F50006B5C4568DD4085600A4D6D6805F4605135
:101F6000C90A0B4D6B5C4568DD40C560054D6D6869
:101F700005F44041890B074D6B5CC568B5FBF3F573
:101F8000056130BD0010024000127A0000093D00DA
:101F90001400002024000020024909888143014ADE
:101FA000118070470428004070B5002600240025E9
:101FB00000F072F806463448B6FBF0F43348008867
:101FC000A0423BD031490C8040F2B2750EE0284669
:101FD000FFF766FD30B1B4F5B77F02D3A4F5B7744F
:101FE00002E006E0A4F26D14681C85B2B4F5B67F79
:101FF000EDD800BF26484561002517E02449898AAD
:1020000088B2FFF74DFD30B1012D04D11D2C01D355
:102010001D3C09E00CE01F48405DA04203D81D486C
:10202000405D241A00E003E0681C85B21C2CE5D258
:1020300000BF681C16490861601CC8601248B6FBE6
:10204000F0F100FB11644FF46160B4FBF0F0104953
:1020500088604FF46160B4FBF0F100FB11403C215B
:10206000B0FBF1F00A4948604FF46160B4FBF0F155
:1020700000FB11403C21B0FBF1F201FB12000449CE
:102080000860002070BD0000805101003001002078
:102090000406002068800008002103480188001F12
:1020A000008841EA004070471C280040014600209B
:1020B000064A12880A40D0B2044A121F12880A4007
:1020C00012B108B1012000E0002070470428004050
:1020D00010B590B00120FFF7E9FF30B1FFF764FFC2
:1020E00000F036F80120FFF757FFFFF793FDC08897
:1020F0004004040C2046FFF77DFD0F4800680E49A0
:1021000049680D4A92680C4BDB68CDE90032CDE995
:1021100002100948036909A1426904A800F0BEFD44
:10212000FFF778FDC0884004040C04A92046FFF79F
:102130000FFA10B010BD00000406002025643A25F7
:10214000643A2564202025643A25643A25640A000F
:1021500000BF0348008800F020000028F9D0704735
:102160000428004010B500241648006820F00F0035
:10217000144908600846006840F00800086003E061
:10218000641C0120FEF7DAFE01210E48FFF7D8F8A3
:1021900008B1642CF4DB642C01DB012010BD0024A9
:1021A00003E0641C0120FEF7C9FE01210548FFF78A
:1021B000C7F808B9642CF4DB642C01DB0120EDE7DF
:1021C0000020EBE7001001407047000010B500242C
:1021D0001349144800F003FD4FF4FA70FEF788FE2F
:1021E00014E0FFF77BFC60B10F4910A000F046FD42
:1021F00000200F4908804FF480610B48FDF7BBFFBA
:1022000006E0601CC4B26420FEF772FE052CE8DB19
:1022100000BF052C02DB4FF0FF3010BD0020FCE7B3
:10222000D7000020004400403C01002025730A0034
:102230005C00002010B500241349144800F0CFFCC6
:102240006420FEF755FE14E0FFF748FC60B110492A
:1022500010A000F013FD00200F4908804FF48061AA
:102260000B48FDF788FF06E0601CC4B26420FEF74F
:102270003FFE052CE8DB00BF052C02DB4FF0FF30F2
:1022800010BD0020FCE70000F300002000440040E7
:102290003C01002025730A005C00002010B50024DA
:1022A0001349144800F09BFC4FF4FA70FEF720FE2F
:1022B00014E0FFF713FC60B10F4910A000F0DEFC42
:1022C00000200F4908804FF480610B48FDF753FF51
:1022D00006E0601CC4B26420FEF70AFE052CE8DBB1
:1022E00000BF052C02DB4FF0FF3010BD0020FCE7E3
:1022F000E6000020004400403C01002025730A0055
:102300005C00002010B500241349144800F067FC5D
:102310006420FEF7EDFD14E0FFF7E0FB60B110492B
:1023200010A000F0ABFC00200F4908804FF4806142
:102330000B48FDF720FF06E0601CC4B26420FEF7E6
:10234000D7FD052CE8DB00BF052C02DB4FF0FF308A
:1023500010BD0020FCE70000B00000200044004059
:102360003C01002025730A005C00002010B50D49D7
:102370000D4800F034FC4FF4FA70FEF7B9FD0B483D
:10238000008800280CDDFEF78FFC094981F8340035
:102390000020064908804FF480610648FDF7EBFEF7
:1023A00010BD000017010020004400405C00002028
:1023B0003C0500203C01002010B5002414491548BC
:1023C00000F00DFC41F28830FEF792FD16E0FFF7B9
:1023D00085FB01280CD1104910A000F04FFC002013
:1023E0000F4908804FF480610B48FDF7C4FE07E0F9
:1023F000601CC4B24FF47A70FEF77AFD052CE6DB60
:1024000000BF052C02DB4FF0FF3010BD0020FCE7C1
:1024100085000020004400403C01002025730A0094
:102420005C00002010B500241D491E4800F0D7FBB9
:102430004FF47A70FEF75CFD28E0FFF74FFB0128B0
:102440000CD1194919A000F019FC00201949088085
:102450004FF480611448FDF78EFE19E0FFF73EFB54
:1024600002280DD1104914A000F008FC00201149E9
:1024700008804FF480610C48FDF77DFE022010BDFE
:10248000601CC4B24FF47A70FEF732FD052CD4DB29
:1024900000BF052C02DB4FF0FF30F0E70020EEE735
:1024A000A4000020004400403C0100204F6B3A256E
:1024B000730A00005C0000204E6F3A25730A00008A
:1024C00010B500241349144800F089FB6420FEF77E
:1024D0000FFD14E0FFF702FB60B1104910A000F0FF
:1024E000CDFB00200F4908804FF480610B48FDF7B9
:1024F00042FE06E0601CC4B26420FEF7F9FC052C25
:10250000E8DB00BF052C02DB4FF0FF3010BD0020E0
:10251000FCE7000063000020004400403C01002074
:1025200025730A005C00002010B50849084800F037
:1025300056FB4FF4FA70FEF7DBFC002005490880DB
:102540004FF480610448FDF716FE10BD1301002012
:10255000004400405C0000203C01002010B5002435
:102560001449154800F03BFB4FF47A70FEF7C0FCAD
:1025700015E0FFF7B3FA60B1104911A000F07EFB3F
:102580000020104908804FF480610C48FDF7F3FDEE
:1025900007E0601CC4B24FF47A70FEF7A9FC052C6A
:1025A000E7DB00BF052C02DB4FF0FF3010BD002041
:1025B000FCE7000071000020004400403C010020C6
:1025C00025730A005C00002010B50D48006820F05B
:1025D0000F000B4908600846006840F003000860DF
:1025E00001210748FEF7B5FE1420FEF781FC01210A
:1025F0000348FEF7B0FE1E20FEF7A0FC10BD000051
:102600000010014010B500F001F810BD0CB500201D
:10261000019000903348006840F4803031490860F0
:1026200000BF3048006800F4003000900198401C62
:102630000190009818B90198B0F5A06FF1D1294820
:10264000006800F4003010B10120009001E000208B
:1026500000900098012843D12348006840F0100002
:10266000214908600846006820F003000860084619
:10267000006840F0020008601A4840681949486044
:102680000846406848600846406840F480604860FA
:102690000846406820F47C1048600846406840F4D2
:1026A000E81048600846006840F08070086000BF8D
:1026B0000C48006800F000700028F9D00948406814
:1026C00020F00300074948600846406840F00200D7
:1026D000486000BF0348406800F00C000828F9D1AA
:1026E0000CBD00000010024000200240042808D168
:1026F0004FF0E021096941F004014FF0E02211613F
:1027000007E04FF0E021096921F004014FF0E022D9
:10271000116170477047000010B51348006840F021
:1027200001001149086008464068104908400E49F8
:102730004860084600680E4908400B490860084692
:10274000006820F4802008600846406820F4FE00FD
:1027500048604FF41F008860FFF754FF4FF000609F
:102760000449086010BD0000001002400000FFF89E
:10277000FFFFF6FE08ED00E010B5002440F2255101
:102780000F4800F086F860B10D4800F03DF9C4B282
:102790000C480D49098844540B480088401C0A49DC
:1027A00008800821064800F067F8012806D10821B2
:1027B000034800F00BF8024800F026F910BD0000B5
:1027C000004400403C0100205C00002001F4007245
:1027D000B2F5007F00D100BFCA430280704721B12B
:1027E000828942F40052828104E082894DF6FF73AF
:1027F0001A4082817047000000B585B00121042095
:10280000FFF750FB01218803FFF74CFB4FF40070EA
:10281000ADF8100018208DF8130003208DF8120079
:1028200004A91348FEF7B8FC4FF48060ADF810001F
:1028300004208DF8130004A90D48FEF7ADFC4FF4F9
:10284000165000900020ADF80400ADF80600ADF879
:102850000800ADF80C000C20ADF80A0069460548E8
:1028600000F066F801210348FFF7B9FF05B000BD8D
:10287000000801400038014002460020B1F5007F09
:1028800000D100BF13880B400BB1012000E00020F5
:10289000704770B50246002400230025002040F652
:1028A0006A16B14200D100BFC1F3421501F01F0307
:1028B000012606FA03F3012D02D19689334006E082
:1028C000022D02D1168A334001E0968A33400C1261
:1028D000012606FA04F41688344013B10CB1012025
:1028E00000E0002070BDF0B503460024002600255E
:1028F000002040F66A17B94200D100BF1846C1F364
:10290000421401F01F06012707FA06F5012C01D138
:102910000C3004E0022C01D1103000E014301AB168
:1029200007682F43076002E00768AF430760F0BD08
:102930002DE9F04786B005460E460024A24600BFAA
:10294000A1460027B08900B100BF2F462C8A4CF663
:10295000FF700440F08804432C82AC894EF6F310DB
:102960000440B08831890843718908430443AC812D
:10297000AC8A4FF6FF400440B0890443AC8201A802
:10298000FFF7A0FA1F48874202D1DDF810A001E04E
:10299000DDF80CA0A88900F4004040B10AEBCA00A1
:1029A00000EB0A1031684900B0FBF1F807E00AEBD0
:1029B000CA0000EB0A1031688900B0FBF1F864200E
:1029C000B8FBF0F004012009642101FB1089A889FB
:1029D00000F4004040B1322000EBC900B0FBF1F040
:1029E00000F00700044308E0322000EB09106421E6
:1029F000B0FBF1F000F00F0004432C8106B0BDE8FD
:102A0000F08700000038014001468888C0F30800C4
:102A10007047C1F3080282807047000000B587B09C
:102A200001210420FFF73EFA01214804FFF72AFAAA
:102A300018208DF81B000420ADF8180003208DF835
:102A40001A0006A91D48FEF7A7FB0820ADF81800DC
:102A500004208DF81B0006A91848FEF79DFB4FF4D3
:102A6000165002900020ADF814000C20ADF81200B2
:102A70000020ADF81000ADF80E00ADF80C0002A972
:102A80000F48FFF755FF26208DF8040001208DF830
:102A900007008DF8050002208DF8060001A8FFF759
:102AA00091F9012240F225510548FFF71CFF012151
:102AB0000348FFF794FE07B000BD00000008014086
:102AC00000440040F0B5ADF5037D04460D464FF4DB
:102AD000807143A8FDF74FFB4FF4807103A8FDF709
:102AE0004AFB00262B4622461BA143A800F0D6F83D
:102AF00043A8FDF75DFB074643A8274BA3F114024B
:102B00002649CDE9007003A800F0C8F803A92448BD
:102B100000F065F803A923A000F0B0F84FF4FA70B4
:102B2000FEF7E6F922480088002811DD214922A09D
:102B300000F0A4F81E4801781E48FEF799F80646F2
:102B400000201B4908804FF480611A48FDF713FBF1
:102B500030460DF5037DF0BD7B22646174617374B2
:102B60007265616D73223A205B7B226964223A2090
:102B7000222573222C2264617461706F696E7473F4
:102B8000223A205B7B2276616C7565223A202225F1
:102B900073227D5D7D5D7D00500500200881000869
:102BA0000044004053656E643A2025730A0000001B
:102BB0005C0000203C01002025730A0000BFFEE7F6
:102BC00070B504460D4629462046FFF722FF00BF98
:102BD00080212046FFF750FE0028F9D070BD70B567
:102BE00006460C46002500BF615D3046FFF7E8FF52
:102BF0006D1C605D0028F7D100BF40213046FFF713
:102C00003BFE0028F9D070BD70B50024002525E0FA
:102C1000601CC4B2FFF788FCFFF752FC401C00B9EF
:102C20001CE0FFF79BFC401C00B917E0FFF7FAFB24
:102C30000546022D04D1FFF7BFFB401C18B90DE07B
:102C4000681C00B90AE0FFF7F5FA401C00B905E07E
:102C5000FFF758FB401C00B900E001E0032CD7DB74
:102C600000BF032C02DB4FF0FF3070BD0320024990
:102C700081F834000020F8E73C0500200FB4054B34
:102C800010B503A9044A029800F06EF910BC5DF873
:102C900014FB0000A1360008340100200FB4084BDB
:102CA00010B504A902AA039800F05EF9044602A92F
:102CB000002000F0F0FC204610BC5DF814FB000082
:102CC00097360008490050EAC12018BF04204A0D79
:102CD00018BF40F0010040F2FF72B2EB515F08BF35
:102CE00040F00200012808BF052070472DE9F0419F
:102CF0004F1E00EBC7010446D1E9000115461E46F0
:102D000037F006020DD02A463346FDF736FB7F1E0C
:102D100004EBC703D3E90023FDF71FFD37F00602DC
:102D2000F1D1022F25D0042F13D0062F18BFBDE8F4
:102D3000F0812A463346FDF720FBD4E90A23FDF74C
:102D40000CFD2A463346FDF718FBD4E90823FDF7AE
:102D500004FD2A463346FDF710FBD4E90623FDF7B0
:102D6000FCFC2A463346FDF708FBD4E90423FDF7B3
:102D7000F4FC2A463346FDF700FBD4E90223FDF7B5
:102D8000ECFC2A463346FDF7F8FAD4E90023BDE807
:102D9000F041FDF7E2BC0000002213461046014955
:102DA000FDF75DBB0000F03FFDF7D7BC00221346E6
:102DB00010461146FDF753BB40F2013200204FF0A0
:102DC000E041FDF771BD0000024A00201107FDF748
:102DD0006BBD000001FDFFFF02E008C8121F08C123
:102DE000002AFAD170477047002001E001C1121F8C
:102DF000002AFBD1704700000149086070470000BD
:102E0000380100202DE9FF5FDDE90220010DDDF82A
:102E100038B0024318D044F61050A1F2FF314143BC
:102E20000D140F98012820D0A5EB0B00401C5FEA81
:102E3000000A4FF00004474EDFF81C91A0465046B0
:102E400016D5CAF1000728E00F98012443A20128F3
:102E500008D0002100980F9BC0E90021C0E902437F
:102E6000BDE8FF9F6FEA0B01F4E7CBF10000DEE75E
:102E7000074612E0F80707D0224633464046494647
:102E8000FDF77BFA804689462246334610461946AE
:102E9000FDF773FA04460E467F10002FEAD1DDE9F4
:102EA0000201BAF1000F42464B4602DAFDF765FA1D
:102EB00001E0FDF7D4FA04460E460022284BFDF748
:102EC00033FD03D84FF0FF30014607E00022254BC9
:102ED00020463146FDF741FCFDF70EFD102409E0C8
:102EE000002C0ADB0A220023FDF772FB019B303223
:102EF0001A55641E50EA0102F2D1641C019AC4F111
:102F0000110314440F9A012A03D0012208430DD162
:102F10000AE0084304D000204FF0110B0F9080E727
:102F2000A3EB0B056D1E0DE05B4504DD4FF00002C9
:102F300005F1010504E003DA4FF00002A5F10105F7
:102F4000002AECD000980F99C0E90231C0E9004591
:102F500086E70000000024400000F03F3000000041
:102F60000000F0430000E03F2DE9FF4F95B09B4685
:102F70008946064600250FE2252877D100242746FA
:102F8000F84A0121059400E0044316F8013F203B74
:102F900001FA03F01042F7D130782A2811D06FF0EF
:102FA0002F033078A0F13002092A16D8059A44F090
:102FB000020402EB820203EB42021044761C0590ED
:102FC000EFE759F8042B0592002A03DA504244F443
:102FD0000054059044F00204761C30782E2816D157
:102FE00016F8010F44F004042A280DD06FF02F02C8
:102FF0003078A0F13003092B09D807EB870302EBE7
:103000004303C718761CF3E759F8047B761C307825
:103010006C280FD006DC4C2817D068280DD06A2801
:1030200014D104E0742810D07A280FD10DE044F4B4
:1030300000140AE044F4801401E044F4401472786F
:10304000824202D104F58014761C761C3078662802
:103050000BD013DC582877D009DC002875D0452820
:10306000F6D04628F4D047281AD19DE118E063280D
:1030700035D0642879D0652812D195E1702873D0B5
:1030800008DC6728F1D069286FD06E280DD06F2832
:1030900006D1B5E073282CD0752875D0782874D067
:1030A0005A46179990476D1C75E1C4F302500228E7
:1030B00009D003280DD0D9F8001004280DD00D60D8
:1030C00009F1040967E1D9F80010EA17C1E90052D3
:1030D000F6E7D9F800100D80F2E70D70F0E719F867
:1030E000041B8DF8001000208DF80100EA46012035
:1030F00003E059F804AB4FF0FF3061074FF00001D7
:1031000002D40DE008F101018846B9420FDA80458A
:10311000F8DB1AF808100029F4D108E008F10101E1
:1031200088468142FADB1AF808100029F6D1059882
:103130005B46A0EB080721463846179A00F094FA40
:10314000284400EB080507E04DE029E10DE01AF8FE
:10315000010B5A4617999047B8F10108F7D25B4620
:1031600021463846179A13E142E00A220092C4F33E
:1031700002524FF0000A022A08D059F804CB032A61
:103180004FEAEC710AD00DE029E02AE009F10701CD
:1031900021F00702F2E802C1914609E00FFA8CFC27
:1031A0004FEAEC71042A03D14FFA8CFC4FEAEC7120
:1031B000002907DA0A460021DCF1000C61EB02016C
:1031C0002D2202E0220504D52B228DF804200122B5
:1031D00003E0E20701D02022F7E7904659E00A21F8
:1031E00002E010220DE010214FF0000A00910BE0E8
:1031F00010224FF0000A44F004040827009203E074
:1032000008224FF0000A0092C4F30252022A05D0AD
:1032100059F804CB0021032A08D009E009F107017D
:1032200021F00702F2E802C1914605E01FFA8CFC8A
:10323000042A01D10CF0FF0C4FF00008220728D51A
:10324000702806D0009B83F0100353EA0A0305D0D0
:103250000EE040228DF80420012208E05CEA010221
:1032600006D030228DF804208DF805000222904609
:10327000009B83F0080353EA0A030AD15CEA0102C7
:1032800001D1620705D530228DF804204FF00108E6
:103290007F1E582804D034A003900EA802900DE0A1
:1032A00036A0F9E753466046009AFDF791F9844647
:1032B0000398825C0298401E029002705CEA010052
:1032C000F0D1029806A9081A00F1200A600702D579
:1032D00024F4803400E00127574502DDA7EB0A0003
:1032E00000E0002000EB0A01009005984144401ADC
:1032F0000590E00306D45B462146179A059800F036
:10330000B3F90544002706E001A85A46C05D1799A5
:1033100090476D1C7F1C4745F6DBE0030CD55B46F0
:103320002146179A059800F09FF9054404E03020E3
:103330005A46179990476D1C0099481E0090002925
:10334000F5DC08E0029802995A460078491C02917F
:10335000179990476D1CBAF10001AAF1010AF1DC3E
:1033600065E1000009280100303132333435363749
:1033700038396162636465660000000030313233C1
:103380003435363738394142434445460000000061
:1033900000F058F90544761C307800287FF4ECAD35
:1033A00019B02846BDE8F08F620700D4062709F15E
:1033B000070222F0070CFCE80223E14603F0004874
:1033C0005FEA080C02D00FF2702C0DE05FEA045C9B
:1033D00002D50FF2682C07E05FEAC47C02D00FF23E
:1033E000602C01E0AFF2700C4FF0FF3823F0004387
:1033F000CDF850C065280CD006DC452809D04628F9
:103400001DD047283DD13DE0662818D067287ED1E1
:1034100038E00021112F01DB112000E0781CCDE9FC
:10342000000106A90EA8FFF7EDFCDDE90F010E9AD9
:1034300003910021009207F1010A04914DE04FF041
:1034400000400097CDE9011006A90EA8FFF7DAFCAD
:10345000DDE90F0203920E9B11990022DDF80CA00A
:103460000093049211B9791C00EB010AB7EB0A0032
:1034700004D4C0F1FF3007F1010A0490AAEB070061
:10348000019044E0012F00DA01270021112F01DD16
:10349000112000E03846CDE9000106A90EA8FFF78B
:1034A000B1FCDDE90F010E9A039100210491009215
:1034B000BA4621070CD40399514500DA8A46BAF17D
:1034C000010F05DD009AAAF10101515C302908D0F5
:1034D000B84202DA10F1040F06DA0121CDE9011039
:1034E00015E0AAF10101E9E7002805DC049901448F
:1034F0000491AAEB000102E0411C514500DD8A461F
:103500000499401A401C01904FF00040029020079F
:1035100004D40198504501DBCDF8048000208DF8DB
:103520004F0002980DF14F07B0F1004F25D02B202E
:103530000E9002984FF0020800280CDA40420290E8
:103540002D200E9007E00A210298FDF72BF830316C
:10355000029007F8011DB8F10001A8F10108F2DCA2
:1035600002980028EFD1791E0E980870307800F08C
:10357000200040F0450007F8020D12A8C01B00F122
:1035800007081498007800B1012000EB0A010198A7
:1035900001EBE07105984144401A401E0590E0039C
:1035A00006D45B462146179A059800F05DF805445D
:1035B0001498007818B15A46179990476D1CE0038B
:1035C00024D55B462146179A059800F04DF805442E
:1035D0001CE00498002807DBDDE90301884203DDD5
:1035E0000098405C179901E0179930205A4690479F
:1035F000049805F10105401C04900198401E0190BB
:1036000004D12E205A46179990476D1CBAF100013B
:10361000AAF1010ADDDC05E017F8010B5A461799FB
:1036200090476D1CB8F10001A8F10108F4DC5B467D
:103630002146179A0598ABE62D0000002B000000EC
:10364000200000002DE9F041044600251E461746E3
:10365000880404D405E039462020B0476D1C641E60
:10366000F9D52846BDE8F0812DE9F0410446002552
:103670001E469046C80301D5302700E02027880465
:1036800004D505E041463846B0476D1C641EF9D5A7
:103690002846BDE8F0810A68531C0B601070704723
:1036A00070B504460D46E1B20548FFF7B2F900BF18
:1036B00080210348FFF7E0F80028F9D0204670BDCC
:1036C0000038014094B000260027B0460024A146EF
:1036D00000201290402102A8FCF74DFDA2460025D3
:1036E000FDF7E4FB4FF4A060FEF7A4FBFEF718F82B
:1036F000B248FEF79FFA00214FF47840FEF790FAA7
:10370000AF480388AF48028800210846FDF7B4FEA1
:103710004FF47840FEF794FAFEF77CFAA346AAA18C
:103720005846FDF715FFAB48FEF784FAFFF764F83B
:10373000FDF7F4FA8246BAF1010F02D1A6A0FFF715
:103740009DFAFEF783FAFEF7EFF9FEF7ABFAFDF705
:10375000E9FC82460AF1010010B9A3A0FFF78EFA36
:10376000A8A1B048FCF738FDAFA1AE481438FCF76B
:1037700033FD21E1052098FBF0F100FB118050B9E9
:10378000FDF702FCA748143890F83400032802D053
:10379000A8A0FFF773FAAAA0FFF770FA052E05D1CB
:1037A000A048143890F83400032809D0A9480078BC
:1037B000012862D19B48143890F8340003285CD16A
:1037C000FDF7EAFD1290A4A196488130FFF766FA52
:1037D0001298FCF7B8FE02460B46CDE90001A0A105
:1037E00090489930FFF75AFA1298FCF7ACFE02465F
:1037F0000B46CDE900019CA102A8FFF74FFAFEF7A6
:1038000009FAC08800EB40001FFA80FB5846FEF71B
:10381000F1F9FEF7FFF9C08800EB40001FFA80FBCA
:1038200002A95846FDF794FE7E499931A1F118008E
:10383000FFF748F9054655B990480068401C8F4984
:103840000860084601688EA0FFF718FA04E0914866
:10385000016891A0FFF712FA402102A8FCF78BFC47
:10386000902170482130FCF786FC002079490870CF
:1038700004218E48FDF76FFD00260C2F05D1694805
:10388000143890F83400032809D0894800780128BA
:103890007ED16448143890F834000328F8D14946A2
:1038A0002046FDF76CFA83A15E482130FFF7F6F958
:1038B000224682A102A8FFF7F1F9FEF7ABF9C08812
:1038C00000EB80001FFA80FB5846FEF793F9FEF7E5
:1038D000A1F9C08880044FEA104B02A95846FDF7B1
:1038E00037FE21464F482130FFF7ECF805462DB949
:1038F0006248016862A0FFF7C1F904E06548016809
:1039000065A0FFF7BBF9402102A8FCF734FC902129
:1039100044482130FCF72FFC6CA142485130FFF79E
:10392000BDF94A466BA102A8FFF7B8F9FEF772F994
:10393000C088C0EBC0001FFA80FB5846FEF75AF95A
:10394000FEF768F9C08800EB80001FFA80FB02A92F
:103950005846FDF7FDFD494632485130FFF7B2F8B1
:1039600005462DB94548016845A0FFF787F904E0F1
:103970004848016848A0FFF781F9402102A8FCF7F8
:10398000FAFB902127482130FCF7F5FB002000E0EE
:1039900006E04749087008214448FDF7DCFC002791
:1039A000701CC6B2781CC7B208F1010000F0FF0815
:1039B0004FF47A70FDF79CFADCE600004C00002022
:1039C00036000020340000202020776966692074CA
:1039D000657374004400002064687431312065729E
:1039E000726F720A000000007769666920636F6E6B
:1039F000666967206572726F722C207265736574D8
:103A00000A0000005279316A554147754F4D627A7C
:103A1000546663436C786D4470467933423D453D4E
:103A2000000000005005002036303834363436307F
:103A30003800000077696669206572726F720A004B
:103A400073746172742073656E6420646174610ABA
:103A5000000000002E0100204D51325F70706D009B
:103A6000252E32660000000020202020204D5132FB
:103A70003A20252E32662070706D0000280000204C
:103A800075706C6F616420737563633A2025640AF6
:103A9000000000002C00002075706C6F61642066CF
:103AA00061696C3A2025640A0000000000100140A2
:103AB0002F01002054656D700000000020202020A0
:103AC0002054656D703A20257320540048756D6947
:103AD00000000000202020202048756D693A202534
:103AE000732048002DE9F04D1D460C4698B017464E
:103AF00021F0004123F00043002814BF4FF0010CD7
:103B00004FF0000C0CEB440CFE4A0CEB02064FEAA3
:103B1000620C66452BD33E0018BF012606EB450616
:103B20001644F94A964222D3F84A53EA070C02D0C7
:103B3000944205D148B918B000201146BDE8F08D77
:103B4000002808BF4FF0000C01D04FF0010C0CEB27
:103B5000440212F5001F0AD8002F14BF4FF0010CC9
:103B60004FF0000C0CEB450212F5001F07D918B0FE
:103B70003A462B462146BDE8F04DFFF715B9002225
:103B8000DFF88CA3002CB8BF534526DADFF884C3D6
:103B90006345A8BF022220DADFF870C39C451CDC15
:103BA000DFF874C30CEB235CBCF1140F08DDCCF11F
:103BB000340627FA06FC0CFA06F6BE420DD108E0E0
:103BC0005FB9CCF1140623FA06FC0CFA06F69E4205
:103BD00003D10CF00102C2F1020251EA000C19D12A
:103BE000002D17DA002C18BF022A01D0012A07D0B5
:103BF0000220FFF701F918B0BDE8F04DFFF7CCB88F
:103C00000220FFF7F9F8FFF7C7F818B081F000417C
:103C1000BDE8F08DB7F1000C6CD1534525D104F10E
:103C2000804212F5801201BF00280020B74918B069
:103C300008BFBDE8F08DB548884207DC002DA1BF64
:103C40006046294618B0BDE8F08D07E0281E05DA69
:103C500080F0004118B06046BDE8F08DAF4979446E
:103C6000D1E9000118B0BDE8F08DDFF8A0C26345CE
:103C700025D1002D1FDA19B1514512D1D8B909E06B
:103C8000002840F0EC82A24A214618B062F31E01DF
:103C9000BDE8F08D0020214618B060F31E01BDE89C
:103CA000F08D08DA18B02346BDE8F04D024600203A
:103CB0006146FCF7D4BB18B02146BDE8F08D5145F4
:103CC00018DAB5F1804F0DD0A5F1005CBCF1FF5CB6
:103CD00010D1B4F1000C0DDB18B06146BDE8F04D19
:103CE00000F0ECBB234618B00246BDE8F04D194683
:103CF000FCF743BB060024F0004C3BD1D9B1514541
:103D000033D1002C06DD002DA1BF0020514618B094
:103D1000BDE8F08D002C01DD002D1BDB002C13DA3B
:103D2000002D11DB012A4FF0000014BF78497C49B7
:103D300018B0BDE8F08D022A18BF002C0AD0012A65
:103D400008D1002C06DA0AE0002CB8BF002D11DAE9
:103D5000012A04D0002018B00146BDE8F08D18B04B
:103D600000204FF00041BDE8F08DA1F14050B0F1CE
:103D70007F601AD0012000EBE47050EA020421D0E9
:103D8000624C521E4FF0000B104304BF4FF0000B6B
:103D9000644C654883427CDD644A654893421FDD7C
:103DA000884217DB002D25DB37E0002C00DA4AB112
:103DB000022A0CBF01204FF0FF3018B0BDE8F04DD3
:103DC000FCF789BD0120FFF717F818B0BDE8F04DEA
:103DD000FEF7ECBF4D4A8A4202DC002D0ADC1CE0F3
:103DE000814202DA002D18DA04E0484B994220DDC6
:103DF000002D12DD0220FEF7FFFFFEF7DDFF054676
:103E00000E460022534658462146FCF7B6FA18B033
:103E100066F31E012846BDE8F08D0220FEF7ECFF98
:103E2000FEF7D2FF0A46214618B062F31E01BDE834
:103E3000F08D002230466146FCF730FD80460E468C
:103E40006FF00102FCF730FD4FF05532394BFCF7B3
:103E500028FD42463346FCF790FA0022364BFCF729
:103E600020FD824642463346049110461946FCF72F
:103E700084FA5246049BFCF780FA8A4600904FF081
:103E8000C0422E4B40463146FCF777FA2C4A2B4B6A
:103E900000E027E0CDE9060151460098FCF76DFAF5
:103EA00082460191274A284B40463146FCF765FA85
:103EB0005246019BFCF7F2FC82460B4602460591F6
:103EC000DDE90601FCF749FCDDE90623002688460A
:103ED0003046FCF7E3FC5246059BFCF7E2FC024649
:103EE00000F07EB90020B1F5801F07DA3522304698
:103EF0006146FCF7D9FC06466FF0340000EB215018
:103F000024E00000FFFF1F00FFFF0F000000F03F54
:103F10000000F07F0000404301FCFFFF9E440000D2
:103F20000000F0FF0000F0BF0000E0410000F0439F
:103F3000FFFFEF3F5555D53F0000E03F4715F73FE6
:103F4000FE822B6544DF5DF80BAE543EA0F2FF30DD
:103F50000190C1F3130040F07F6141F040510291A4
:103F6000FE498842D8BF002004DDFD498142C8BF18
:103F7000012001DD0D9008E000200D900198401C0B
:103F800001900298A0F5801002900299F5487844BB
:103F90000B910D9900EBC100D0E900230F9330463F
:103FA0000A920B99FCF77AFCCDE90601DDE90A21BA
:103FB00030460F9BFCF7D1FB02460B460020EA4936
:103FC000FCF74DFA059102460B460090DDE906012B
:103FD000FCF7D3F91490E5488A464FF0000878447E
:103FE0000299006812904FF0005040EA61010D986C
:103FF0000F9B01EB804000F5002109910A9A12986D
:10400000FCF74CFC32460B9BFCF74BFC42465346FC
:10401000FCF7B3F90646029140465146099B129AB5
:10402000FCF7ABF9DDE90623FCF73BFC3246029BCB
:10403000FCF734FC059B009AFCF79FF90091149A59
:104040000490534610461946FCF797F90646024677
:10405000C7480B46029106217844FEF747FECDE99A
:104060000510029B324610461946FCF786F9DDE939
:104070000532FCF782F9059106465346404619463B
:10408000149AFCF76AFB009B049AFCF776F9324617
:10409000059BFCF762FBCDE90510424653461046EE
:1040A0001946FCF76AF90022B24B02910A90FCF71C
:1040B00054FBDDE90532FCF750FB0E464246AD4BA2
:1040C0004046FCF7EBFB029B0A9AFCF7E7FBDDE9B5
:1040D0000532FCF7E6FB424602910A903346104651
:1040E0005146FCF74AF9CDE906015346149A029964
:1040F0000A98FCF742F98A460290334642460099F4
:104100000498FCF73AF95346029AFCF726FB8246DC
:104110000B4602460591DDE90601FCF71EFBDDE9D1
:104120000623002088460646FCF7B8FB5246059B4E
:10413000FCF7B7FB824609914FF060428E4B304648
:104140004146FCF71AF9049006918C4A8A4B504676
:104150000999FCF712F982460291894A894B304647
:104160004146FCF70AF95246029BFCF7F6FA864BE9
:104170007B440D9A03EBC203D3E90023FCF7EDFA6D
:104180000E9007910198FCF7A6FB0591DDE9061357
:1041900082460E9A0498FCF7E0FA7C4A7A440D9B1A
:1041A00002EBC303D3E9002300930292FCF7D5FA94
:1041B0005246059BFCF7D1FA002688465246304607
:1041C000059BFCF76BFB009B029AFCF767FB069BC9
:1041D000049AFCF763FB079B0E9AFCF762FB02460E
:1041E00000200B46029038462946FCF7C6F8824666
:1041F00001912B4638461946029AFCF74FFB32468E
:104200004346FCF7BAF85246019BFCF7A6FA07466C
:104210008A463246434629460298FCF7AEF80546E0
:104220000E463A465346FCF798FA594A8846914258
:1042300021DBA8EB020353EA000210D12A463346E1
:10424000FCF72CFBCDE90401524A534B384651464A
:10425000FCF783FADDE90423FCF766FB21D2022098
:10426000FEF7CAFDFEF7A8FD0A46214618B062F324
:104270001E01BDE8F08D494B28F000429A4210D350
:10428000474A08EB020353EA00027FF4C6AD2A4610
:104290003346FCF703FB3A465346FCF745FB7FF6F3
:1042A000BCAD0022019228F000403E493E4A01EB9D
:1042B0002051824223DA481C4FF4801121FA00F089
:1042C00040443A4AC0F30A517A44394BA1F2FF31D3
:1042D000CB4020EA0303C0F3130040F48010C1F187
:1042E0001401C84012680190B8F1000FBCBF4042F1
:1042F000019028463146FCF7D1FA05460E462A467B
:10430000334638465146FCF728FA4FF0000842463B
:10431000284B40460591FCF730F8CDE90601264AC6
:10432000264B40460599FCF728F8009102902A4652
:10433000334640460599FCF7B1FA3A465346FCF736
:10434000B0FA1F4A1F4BFCF718F8009B029AFCF7C3
:1043500004FA0746884602460B4635E08E9803006D
:104360007AB60B00E64000000000F03F1E4100005E
:104370004C4000000000084009C7EE3FFD033ADC56
:10438000F5015B14E02F3EBE243F0000E83E000034
:1043900000009040FE822B654715973C00CC904072
:1043A00000346F3F01FCFFFF0000E03F343E00009F
:1043B000FFFF0F00432EE63F396CA80C615C20BE66
:1043C000EF39FAFE422EE63FDDE90601FCF7C5F9BA
:1043D000DDE9062305460E46FCF760FA3A464346F9
:1043E000FCF75FFA0F462A463346009010461946FE
:1043F000FBF7C3FF824602462E4888460B4605213E
:104400007844FEF773FC52464346FBF7B6FF2A4654
:104410003346FCF746FA80468A463B4628463146F4
:10442000009AFBF7AAFF3B46009AFCF796F9069123
:10443000009000224FF0804340465146FCF72EFA90
:104440000F460C904246534628463146FBF795FFEF
:104450003B460C9AFCF703F8069B009AFCF71EFA01
:104460002A463346FCF71AFA0022134BFCF719FAD6
:10447000054601980E4601EB00510815002810DC96
:1044800028463146019AFCF70FFAFEF71BFC042878
:1044900008BFFEF799FC28463146019AFCF704FA5A
:1044A00005460B4618B02A4658462146BDE8F04D51
:1044B000FBF763BFD43C00000000F03F2DE9F04162
:1044C00006460F46FCF78BFA041E0D4618BF012066
:1044D000284320F00040C0F17F6000F1E040C00FB1
:1044E0000ED0301C18BF0120384320F00040C0F12E
:1044F0007F6000F1E040C00F04BF0120FEF77CFCAC
:1045000020462946BDE8F0810000000000000000C0
:104510000000000000000000000000181818181823
:1045200018080008180000000000003424242400AB
:1045300000000000000000000000000016247F249E
:1045400024247E2424000000000000083E684868FF
:104550001C1612127C10100000000061D296740824
:1045600010162949C6000000000000003C646438B1
:10457000724ACE467F00000000000018181818008C
:1045800000000000000000000000000408181030C7
:104590003030301010180C04000000201008080CF7
:1045A0000404040C08181020000000080A341C6AD7
:1045B00008000000000000000000000000001818C3
:1045C000187F18181800000000000000000000000C
:1045D0000000001818083000000000000000000073
:1045E000003C00000000000000000000000000008F
:1045F00000000018180000000000000206040C086B
:104600000810102020400000000000003C664247D7
:104610005B7342663C000000000000001878480808
:10462000080808087E000000000000003C4606065E
:10463000040810207E000000000000007C06060434
:104640003C0202067C000000000000000C1C142448
:104650006444FF0404000000000000007E6060600D
:104660007E0202067C000000000000001E30604850
:10467000764242623C000000000000007E02060418
:104680000C08181030000000000000003C624236A8
:104690001C6642423C000000000000003C664242B2
:1046A000661A0204780000000000000000001818DC
:1046B000000000181800000000000000000018189A
:1046C0000000001818083000000000000000041866
:1046D0003060100C06000000000000000000000028
:1046E0007E007E0000000000000000000000301886
:1046F00004060C1020000000000000301C06060616
:1047000018100010100000000000001C224141DDC4
:10471000B5A5A5AF94C0403C00000000181C34248F
:1047200026627E43C1000000000000007C46424635
:104730007C4242427C000000000000001E204040FD
:10474000404040603E000000000000007C464243C4
:104750004343424678000000000000007E60606035
:104760007E6060607E000000000000007E6060608F
:104770007E60606060000000000000001E6040403D
:10478000CE4242623E00000000000000424242422F
:104790007E42424242000000000000007E181818CD
:1047A000181818187E000000000000007C040404A3
:1047B0000404044478000000000000004244485013
:1047C00070584C44420000000000000020202020CF
:1047D000202020203E000000000000006266675F8D
:1047E0005B5BC1C1C1000000000000006262725248
:1047F0005A4A4E4646000000000000003C6243C397
:10480000C3C343623C000000000000007C464242FB
:104810004678404040000000000000003C6243C376
:10482000C3C343623C180F00000000007C66626650
:104830007C6C646662000000000000003E60406026
:104840001C0602027C000000000000007F181818FF
:1048500018181818180000000000000042424242D8
:10486000424242623C00000000000000C14342623C
:104870002624341C1800000000000000C1C141497A
:104880005B5B76666600000000000000436634183B
:10489000181C2466C300000000000000C1426634FA
:1048A0001C18181818000000000000007E02040CFC
:1048B000181020607E0000000000001C1010101076
:1048C000101010101010101C0000004020201010BC
:1048D00008080C04060200000000003C0C0C0C0C44
:1048E0000C0C0C0C0C0C0C3C00000000181C24627E
:1048F00000000000000000000000000000000000B8
:1049000000000000000000FF000000201000000078
:1049100000000000000000000000000000003C0655
:10492000023E42467A0000000000004040405C62C7
:10493000424242427C0000000000000000001E20B5
:10494000604060203E0000000000000202023E6263
:10495000424242663A0000000000000000003C6253
:10496000427E40603E0000000000000F1810107EE4
:1049700010101010100000000000000000003F6642
:10498000426658403E43423C0000004040405C626A
:10499000424242424200000000000018180078081D
:1049A000080808087E000000000000040C007C04D9
:1049B0000404040404040C78000000606060626C6D
:1049C0007870686462000000000000780808080839
:1049D000080808087E000000000000000000764B78
:1049E0004B4B4B4B4B0000000000000000005C6292
:1049F00042424242420000000000000000003C62CF
:104A0000424342623C0000000000000000005C6283
:104A1000424242427C4040400000000000003E62B2
:104A2000424242663A0202020000000000006E723A
:104A300063606060600000000000000000003E2035
:104A4000203C06027C000000000000001010FE1058
:104A5000101010101E000000000000000000424274
:104A6000424242663A00000000000000000043425B
:104A70006624341818000000000000000000C1C1C6
:104A80005B5A5E66660000000000000000006226BF
:104A90001C181C26620000000000000000004342B9
:104AA0006624341C181830E00000000000007E0668
:104AB0000C1810207E0000000000000E18101010CE
:104AC000307010101010180E0000080808080808B0
:104AD0000808080808080808000000301808080836
:104AE0000C0E080808081830000000000000000044
:104AF000714B0600000000000000000000000000F4
:104B000000000000000000000000000000000000A5
:104B10000000000000000000000000000000000095
:104B20000000000000000000000000000000000085
:104B300000000380018001800180018001800180EC
:104B40000180018001800000000003C003C000005C
:104B50000000000000000000000000000000000055
:104B600000000E700E700E700C300000000000008F
:104B70000000000000000000000000000000000035
:104B80000000000000000000000000000000000025
:104B9000000000000618063806307FFE0C300C308E
:104BA0000C300C307FFE0C601C6018601860000038
:104BB00000000000000000000000000000000000F5
:104BC00000C000C00FF83CC831C031803D801F805C
:104BD00003F001F8031C030C031C3FF83FE007003F
:104BE00006000000000000000000000000000000BF
:104BF0001C007E0E630C631863307E6000C0018071
:104C00000300077C0EE61CC618C630C6607C000098
:104C10000000000000000000000000000000000094
:104C200000000FE01CF0387038701C601FC00F00CF
:104C30003F8C71CC60EC607C70383CFC1FCE000077
:104C40000000000000000000000000000000000064
:104C5000000003C00180018001800000000000000E
:104C60000000000000000000000000000000000044
:104C70000000000000000000000000000000000034
:104C8000003000E001C001800300070006000600BC
:104C90000E000E000E000E00060007000300038049
:104CA00001C000E000300000000000000000000033
:104CB0000C0006000380018001C000E0006000607D
:104CC0000070007000700060006000E000C00180B3
:104CD000038006000C00000000000000000000003F
:104CE0000000018011881DB803C007E03DBC0188A9
:104CF0000180000000000000000000000000000033
:104D000000000000000000000000000000000000A3
:104D1000000000000000000001800180018001808F
:104D200001807FFE01800180018001800000000081
:104D30000000000000000000000000000000000073
:104D40000000000000000000000000000000000063
:104D5000000000000000000003C003C001C001C04B
:104D600003801F00000000000000000000000000A1
:104D70000000000000000000000000000000000033
:104D800000000FF000000000000000000000000024
:104D90000000000000000000000000000000000013
:104DA0000000000000000000000000000000000003
:104DB000000000000000000003C003C003C00000AA
:104DC00000000000000000000000000000000000E3
:104DD0000000001800380030006000E000C001C092
:104DE00001800300030006000E000C001C001800E8
:104DF0003000000000000000000000000000000083
:104E0000000001800FF01C38381C301C707E70EEE2
:104E1000738E7E0E7C0C300C381C1E780FE0000068
:104E20000000000000000000000000000000000082
:104E30000000000007C01FC039C001C001C001C090
:104E400001C001C001C001C001C03FFC3FFC000027
:104E50000000000000000000000000000000000052
:104E6000000003801FF018380038001800380038A0
:104E7000007001E0038007001C003FFC3FFC0000C5
:104E80000000000000000000000000000000000022
:104E9000000007801FF0003800380038003007E0BD
:104EA00007F00038001C001C001820F83FE000004C
:104EB00000000000000000000000000000000000F2
:104EC0000000000000F001B0033007300E301C304D
:104ED000383070307FFE7FFE003000300030000040
:104EE00000000000000000000000000000000000C2
:104EF000000000001FF818001800180018001FE03C
:104F000000F8001C001C001C003800F01FC000004E
:104F10000000000000000000000000000000000091
:104F20000000000003F80F001C001800300037F8E4
:104F30003C3C300C300C380C381C1E380FF0000094
:104F40000000000000000000000000000000000061
:104F5000000000003FFC001C0018003800700060DA
:104F600000E001C001800380070006000E00000081
:104F70000000000000000000000000000000000031
:104F8000000003C01FF8381C381C381C1C380FF0F8
:104F900007F01C78381C300C381C3C380FF000002F
:104FA0000000000000000000000000000000000001
:104FB000000003801FF03838301C701C700C380C57
:104FC0001FFC0FCC001C001800701FE01F800000A9
:104FD00000000000000000000000000000000000D1
:104FE0000000000000000000000003C003C00180BA
:104FF000000000000000000003C003C003C0000068
:1050000000000000000000000000000000000000A0
:105010000000000000000000000003C003C0018089
:10502000000000000000000003C003C001C001C078
:1050300003800F00000000000000000000000000DE
:105040000000000000000000003800F001C0070070
:105050001E0038000E00078001C000700030000004
:105060000000000000000000000000000000000040
:1050700000000000000000000000000000003FFCF5
:10508000000000003FFC3FFC0000000000000000AA
:105090000000000000000000000000000000000010
:1050A00000000000000000001C000F00038001E071
:1050B0000078001C007001E003800E000C0000006E
:1050C00000000000000000000000000000000000E0
:1050D00000000FC000F0003800380038003803F03E
:1050E0000380030003000000000007800780000029
:1050F00000000000000000000000000000000000B0
:1051000000E007F80C0C18063006700363F36633F2
:10511000C673CC63CC62CC66CCE6C7FCE000600012
:10512000700038101FF000000000000000000000B8
:105130000000000003C007E006E00E700E700C30A7
:105140001C3818183FFC3FFC700E600EE007000092
:10515000000000000000000000000000000000004F
:10516000000000003FF03838381C381C38383FF059
:105170003FF8381C380C380C381C3FF83FE0000072
:10518000000000000000000000000000000000001F
:10519000000000E007FC1E043800380030007000FA
:1051A00070007000300038003C001F9C07FC0000BD
:1051B00000000000000000000000000000000000EF
:1051C000000000003FF03078301C300C300E300E04
:1051D000300E300E300E301C30383FF03FC0000033
:1051E00000000000000000000000000000000000BF
:1051F000000000001FF818001800180018001FF821
:105200001FF818001800180018001FF81FF80000F9
:10521000000000000000000000000000000000008E
:10522000000000001FF818001800180018001FF8F0
:105230001FF81800180018001800180018000000C7
:10524000000000000000000000000000000000005E
:10525000000000F007FC1E043800300070007000F1
:1052600070FC700C700C300C380C1F1C07FC00001C
:10527000000000000000000000000000000000002E
:1052800000000000300C300C300C300C300C3FFCB7
:105290003FFC300C300C300C300C300C300C00006B
:1052A00000000000000000000000000000000000FE
:1052B000000000003FFC018001800180018001802E
:1052C000018001800180018001803FFC3FFC0000E3
:1052D00000000000000000000000000000000000CE
:1052E000000000001FF000300030003000300030BF
:1052F000003000300030003000701DE01FC00000A2
:10530000000000000000000000000000000000009D
:1053100000000000381C387038E039C03B803F0086
:105320003F003B8039C038E038703838381C000006
:10533000000000000000000000000000000000006D
:10534000000000001C001C001C001C001C001C00B5
:105350001C001C001C001C001C001FFC1FFC00008B
:10536000000000000000000000000000000000003D
:1053700000000000381C7C3C6C3E6E6E666E66CE93
:1053800063C663866186600660066006600600008C
:10539000000000000000000000000000000000000D
:1053A000000000003C0C3C0C3E0C360C330C338CE3
:1053B000318C31CC30EC306C307C303C301C000017
:1053C00000000000000000000000000000000000DD
:1053D000000001C00FF81C3C381C700E700E6006F7
:1053E0006006700E700E700C381C1E780FE0000006
:1053F00000000000000000000000000000000000AD
:10540000000000003FF0383C381C380C380C381CC9
:1054100038783FE0380038003800380038000000A5
:10542000000000000000000000000000000000007C
:10543000000001C00FF81C3C381C700E700E600696
:105440006006700E700E700C381C1E780FE0018024
:1054500001C000FF003C0000000000000000000050
:10546000000000003FF0383838183818383838F065
:105470003FC038E0387038383838381C380E0000F3
:10548000000000000000000000000000000000001C
:10549000000001E00FF83800380038003C001F80A1
:1054A00003F00078001C001C001C38783FE000006E
:1054B00000000000000000000000000000000000EC
:1054C000000000007FFE01800180018001800180DA
:1054D0000180018001800180018001800180000045
:1054E00000000000000000000000000000000000BC
:1054F00000000000300C300C300C300C300C300C44
:10550000300C300C300C300C381C1C380FF0000004
:10551000000000000000000000000000000000008B
:1055200000000000E006700E700E381C381C1C18BD
:105530001C380C300E70066007E003C003C000008A
:10554000000000000000000000000000000000005B
:1055500000000000600660066006600661866386E3
:1055600073C673CE766C366C3C3C3C3C381C0000F9
:10557000000000000000000000000000000000002B
:1055800000000000301C38181C380E7007E003C003
:1055900003C007E00E701C381838381C700E00006D
:1055A00000000000000000000000000000000000FB
:1055B00000000000700E700C381C1C380E70066065
:1055C00007E003C0018001800180018001800000AC
:1055D00000000000000000000000000000000000CB
:1055E000000000003FFC001C0038007000E001C01B
:1055F000038007000E000C0018003FFC3FFC000079
:10560000000000000000000000000000000000009A
:1056100007F007F006000600060006000600060078
:10562000060006000600060006000600060006004A
:105630000600060007F00000000000000000000067
:10564000000018001C000C00060007000300038087
:10565000018001C000C000600070003000380018F8
:10566000000C00000000000000000000000000002E
:105670000FE00FE00060006000600060006000600C
:10568000006000600060006000600060006000601A
:10569000006000600FE0000000000000000000005B
:1056A0000000000003C006C006600C301818301C53
:1056B00000000000000000000000000000000000EA
:1056C00000000000000000000000000000000000DA
:1056D00000000000000000000000000000000000CA
:1056E00000000000000000000000000000000000BA
:1056F00000000000FFFF00000000000000000000AC
:1057000000001E00038000000000000000000000F8
:105710000000000000000000000000000000000089
:105720000000000000000000000000000000000079
:10573000000000000000000000001FF01038001CF6
:10574000001C0FFC1C1C381C381C3CFC1FDC00001F
:105750000000000000000000000000000000000049
:10576000000038003800380038003BF83E1C3C1C74
:10577000380C380C380C380C381C3C781FE0000012
:105780000000000000000000000000000000000019
:105790000000000000000000000007F80E001C00E0
:1057A00038003800380038001C000F1807F80000D7
:1057B00000000000000000000000000000000000E9
:1057C0000000001C001C001C001C0FFC1C1C381CD2
:1057D000301C301C301C301C383C1CFC0F9C000062
:1057E00000000000000000000000000000000000B9
:1057F000000000000000000000000FF01C38381C02
:10580000300C3FFC3000300038001E0C07FC00005C
:105810000000000000000000000000000000000088
:10582000003C01FE03800300030003007FFC7FFCBB
:105830000300030003000300030003000300000053
:105840000000000000000000000000000000000058
:10585000000000000000000000000FFE1C38381897
:10586000381818381FF03B8030003FF01FFC300E16
:10587000700E381C1FF8000000000000000000003F
:10588000000038003800380038003BF83E383C1C37
:10589000381C381C381C381C381C381C381C0000BC
:1058A00000000000000000000000000000000000F8
:1058B000018003C003C0000000001FC001C001C080
:1058C00001C001C001C001C001C001C03FFC000017
:1058D00000000000000000000000000000000000C8
:1058E000002000700070000000003FF000700070A9
:1058F0000070007000700070007000700070007028
:10590000007020E03FC00000000000000000000028
:1059100000001800180018001800183C187018E053
:105920001B801F001B8019E018701838181C00001D
:105930000000000000000000000000000000000067
:1059400000001FC001C001C001C001C001C001C0F2
:1059500001C001C001C001C001C001C03FFC000086
:105960000000000000000000000000000000000037
:10597000000000000000000000006F3C79EE71CED6
:10598000718E718E718E718E718E718E718E00001E
:105990000000000000000000000000000000000007
:1059A000000000000000000000003BF83E383C1CF6
:1059B000381C381C381C381C381C381C381C00009B
:1059C00000000000000000000000000000000000D7
:1059D000000000000000000000000FF01C3C381C1C
:1059E000700E700E700E700C381C1E780FE00000E8
:1059F00000000000000000000000000000000000A7
:105A0000000000000000000000003BF83E1C3C1CB1
:105A1000380C380C380C380C381C3C783FE0380017
:105A200038003800380000000000000000000000CE
:105A3000000000000000000000000FFC1C1C381CCF
:105A4000301C301C301C301C383C1CFC0F9C001CD3
:105A5000001C001C001C00000000000000000000F2
:105A60000000000000000000000019F81F1C1C0CC2
:105A7000180E180018001800180018001800000070
:105A80000000000000000000000000000000000016
:105A9000000000000000000000000FF81C001800CB
:105AA0001E000FC001F80018001818381FF0000081
:105AB00000000000000000000000000000000000E6
:105AC000000000000600060006007FFC060006003D
:105AD00006000600060006000700078401FC00001F
